{
  "_format": "hh-sol-artifact-1",
  "contractName": "ACLRegistry",
  "sourceName": "contracts/ACLRegistry.sol",
  "abi": [
    {
      "anonymous": false,
      "inputs": [
        {
          "indexed": true,
          "internalType": "bytes32",
          "name": "fileId",
          "type": "bytes32"
        },
        {
          "indexed": true,
          "internalType": "address",
          "name": "grantee",
          "type": "address"
        }
      ],
      "name": "AccessGranted",
      "type": "event"
    },
    {
      "inputs": [
        {
          "internalType": "bytes32",
          "name": "",
          "type": "bytes32"
        },
        {
          "internalType": "address",
          "name": "",
          "type": "address"
        }
      ],
      "name": "canAccess",
      "outputs": [
        {
          "internalType": "bool",
          "name": "",
          "type": "bool"
        }
      ],
      "stateMutability": "view",
      "type": "function"
    },
    {
      "inputs": [
        {
          "internalType": "bytes32",
          "name": "fileId",
          "type": "bytes32"
        },
        {
          "internalType": "address",
          "name": "user",
          "type": "address"
        }
      ],
      "name": "checkAccess",
      "outputs": [
        {
          "internalType": "bool",
          "name": "",
          "type": "bool"
        }
      ],
      "stateMutability": "view",
      "type": "function"
    },
    {
      "inputs": [
        {
          "internalType": "bytes32",
          "name": "fileId",
          "type": "bytes32"
        },
        {
          "internalType": "address",
          "name": "grantee",
          "type": "address"
        }
      ],
      "name": "grantAccess",
      "outputs": [],
      "stateMutability": "nonpayable",
      "type": "function"
    }
  ],
  "bytecode": "0x6080604052348015600f57600080fd5b5061034d8061001f6000396000f3fe608060405234801561001057600080fd5b50600436106100415760003560e01c80633e1fd0da1461004657806340554c3a1461007657806351a65b9f14610092575b600080fd5b610060600480360381019061005b91906102a1565b6100c2565b60405161006d91906102fc565b60405180910390f35b610090600480360381019061008b91906102a1565b610129565b005b6100ac60048036038101906100a791906102a1565b6101d9565b6040516100b991906102fc565b60405180910390f35b600080600084815260200190815260200160002060008373ffffffffffffffffffffffffffffffffffffffff1673ffffffffffffffffffffffffffffffffffffffff16815260200190815260200160002060009054906101000a900460ff16905092915050565b600160008084815260200190815260200160002060008373ffffffffffffffffffffffffffffffffffffffff1673ffffffffffffffffffffffffffffffffffffffff16815260200190815260200160002060006101000a81548160ff0219169083151502179055508073ffffffffffffffffffffffffffffffffffffffff16827ff20afd7b032307b01752ee91e3f6a4b83a5b4ab631f9ab279322fd45634382c060405160405180910390a35050565b60006020528160005260406000206020528060005260406000206000915091509054906101000a900460ff1681565b600080fd5b6000819050919050565b6102208161020d565b811461022b57600080fd5b50565b60008135905061023d81610217565b92915050565b600073ffffffffffffffffffffffffffffffffffffffff82169050919050565b600061026e82610243565b9050919050565b61027e81610263565b811461028957600080fd5b50565b60008135905061029b81610275565b92915050565b600080604083850312156102b8576102b7610208565b5b60006102c68582860161022e565b92505060206102d78582860161028c565b9150509250929050565b60008115159050919050565b6102f6816102e1565b82525050565b600060208201905061031160008301846102ed565b9291505056fea2646970667358221220f49a0f62626211e91a2b7eea49e519aa5cda0604031aa24222c35492e066c03564736f6c634300081c0033",
  "linkReferences": {},
  "deployedLinkReferences": {}
}